{
  "_format": "hh-sol-artifact-1",
  "contractName": "MyEpicNFT",
  "sourceName": "contracts/MyEpicNFT.sol",
  "abi": [
    {
      "inputs": [],
      "stateMutability": "nonpayable",
      "type": "constructor"
    },
    {
      "anonymous": false,
      "inputs": [
        {
          "indexed": true,
          "internalType": "address",
          "name": "owner",
          "type": "address"
        },
        {
          "indexed": true,
          "internalType": "address",
          "name": "approved",
          "type": "address"
        },
        {
          "indexed": true,
          "internalType": "uint256",
          "name": "tokenId",
          "type": "uint256"
        }
      ],
      "name": "Approval",
      "type": "event"
    },
    {
      "anonymous": false,
      "inputs": [
        {
          "indexed": true,
          "internalType": "address",
          "name": "owner",
          "type": "address"
        },
        {
          "indexed": true,
          "internalType": "address",
          "name": "operator",
          "type": "address"
        },
        {
          "indexed": false,
          "internalType": "bool",
          "name": "approved",
          "type": "bool"
        }
      ],
      "name": "ApprovalForAll",
      "type": "event"
    },
    {
      "anonymous": false,
      "inputs": [
        {
          "indexed": false,
          "internalType": "address",
          "name": "sender",
          "type": "address"
        },
        {
          "indexed": false,
          "internalType": "uint256",
          "name": "tokenId",
          "type": "uint256"
        }
      ],
      "name": "NewEpicNFTMinted",
      "type": "event"
    },
    {
      "anonymous": false,
      "inputs": [
        {
          "indexed": true,
          "internalType": "address",
          "name": "from",
          "type": "address"
        },
        {
          "indexed": true,
          "internalType": "address",
          "name": "to",
          "type": "address"
        },
        {
          "indexed": true,
          "internalType": "uint256",
          "name": "tokenId",
          "type": "uint256"
        }
      ],
      "name": "Transfer",
      "type": "event"
    },
    {
      "inputs": [],
      "name": "TOTAL_SUPPLY",
      "outputs": [
        {
          "internalType": "uint256",
          "name": "",
          "type": "uint256"
        }
      ],
      "stateMutability": "view",
      "type": "function"
    },
    {
      "inputs": [
        {
          "internalType": "address",
          "name": "to",
          "type": "address"
        },
        {
          "internalType": "uint256",
          "name": "tokenId",
          "type": "uint256"
        }
      ],
      "name": "approve",
      "outputs": [],
      "stateMutability": "nonpayable",
      "type": "function"
    },
    {
      "inputs": [
        {
          "internalType": "address",
          "name": "owner",
          "type": "address"
        }
      ],
      "name": "balanceOf",
      "outputs": [
        {
          "internalType": "uint256",
          "name": "",
          "type": "uint256"
        }
      ],
      "stateMutability": "view",
      "type": "function"
    },
    {
      "inputs": [
        {
          "internalType": "uint256",
          "name": "tokenId",
          "type": "uint256"
        }
      ],
      "name": "getApproved",
      "outputs": [
        {
          "internalType": "address",
          "name": "",
          "type": "address"
        }
      ],
      "stateMutability": "view",
      "type": "function"
    },
    {
      "inputs": [],
      "name": "getTotalNFTsMintedSoFar",
      "outputs": [
        {
          "internalType": "uint256",
          "name": "",
          "type": "uint256"
        }
      ],
      "stateMutability": "view",
      "type": "function"
    },
    {
      "inputs": [
        {
          "internalType": "address",
          "name": "owner",
          "type": "address"
        },
        {
          "internalType": "address",
          "name": "operator",
          "type": "address"
        }
      ],
      "name": "isApprovedForAll",
      "outputs": [
        {
          "internalType": "bool",
          "name": "",
          "type": "bool"
        }
      ],
      "stateMutability": "view",
      "type": "function"
    },
    {
      "inputs": [],
      "name": "makeAnEpicNFT",
      "outputs": [],
      "stateMutability": "nonpayable",
      "type": "function"
    },
    {
      "inputs": [],
      "name": "name",
      "outputs": [
        {
          "internalType": "string",
          "name": "",
          "type": "string"
        }
      ],
      "stateMutability": "view",
      "type": "function"
    },
    {
      "inputs": [
        {
          "internalType": "uint256",
          "name": "tokenId",
          "type": "uint256"
        }
      ],
      "name": "ownerOf",
      "outputs": [
        {
          "internalType": "address",
          "name": "",
          "type": "address"
        }
      ],
      "stateMutability": "view",
      "type": "function"
    },
    {
      "inputs": [
        {
          "internalType": "uint256",
          "name": "tokenId",
          "type": "uint256"
        }
      ],
      "name": "pickRandomFirstWord",
      "outputs": [
        {
          "internalType": "string",
          "name": "",
          "type": "string"
        }
      ],
      "stateMutability": "view",
      "type": "function"
    },
    {
      "inputs": [
        {
          "internalType": "uint256",
          "name": "tokenId",
          "type": "uint256"
        }
      ],
      "name": "pickRandomSecondWord",
      "outputs": [
        {
          "internalType": "string",
          "name": "",
          "type": "string"
        }
      ],
      "stateMutability": "view",
      "type": "function"
    },
    {
      "inputs": [
        {
          "internalType": "uint256",
          "name": "tokenId",
          "type": "uint256"
        }
      ],
      "name": "pickRandomThirdWord",
      "outputs": [
        {
          "internalType": "string",
          "name": "",
          "type": "string"
        }
      ],
      "stateMutability": "view",
      "type": "function"
    },
    {
      "inputs": [
        {
          "internalType": "address",
          "name": "from",
          "type": "address"
        },
        {
          "internalType": "address",
          "name": "to",
          "type": "address"
        },
        {
          "internalType": "uint256",
          "name": "tokenId",
          "type": "uint256"
        }
      ],
      "name": "safeTransferFrom",
      "outputs": [],
      "stateMutability": "nonpayable",
      "type": "function"
    },
    {
      "inputs": [
        {
          "internalType": "address",
          "name": "from",
          "type": "address"
        },
        {
          "internalType": "address",
          "name": "to",
          "type": "address"
        },
        {
          "internalType": "uint256",
          "name": "tokenId",
          "type": "uint256"
        },
        {
          "internalType": "bytes",
          "name": "data",
          "type": "bytes"
        }
      ],
      "name": "safeTransferFrom",
      "outputs": [],
      "stateMutability": "nonpayable",
      "type": "function"
    },
    {
      "inputs": [
        {
          "internalType": "address",
          "name": "operator",
          "type": "address"
        },
        {
          "internalType": "bool",
          "name": "approved",
          "type": "bool"
        }
      ],
      "name": "setApprovalForAll",
      "outputs": [],
      "stateMutability": "nonpayable",
      "type": "function"
    },
    {
      "inputs": [
        {
          "internalType": "bytes4",
          "name": "interfaceId",
          "type": "bytes4"
        }
      ],
      "name": "supportsInterface",
      "outputs": [
        {
          "internalType": "bool",
          "name": "",
          "type": "bool"
        }
      ],
      "stateMutability": "view",
      "type": "function"
    },
    {
      "inputs": [],
      "name": "symbol",
      "outputs": [
        {
          "internalType": "string",
          "name": "",
          "type": "string"
        }
      ],
      "stateMutability": "view",
      "type": "function"
    },
    {
      "inputs": [
        {
          "internalType": "uint256",
          "name": "tokenId",
          "type": "uint256"
        }
      ],
      "name": "tokenURI",
      "outputs": [
        {
          "internalType": "string",
          "name": "",
          "type": "string"
        }
      ],
      "stateMutability": "view",
      "type": "function"
    },
    {
      "inputs": [
        {
          "internalType": "address",
          "name": "from",
          "type": "address"
        },
        {
          "internalType": "address",
          "name": "to",
          "type": "address"
        },
        {
          "internalType": "uint256",
          "name": "tokenId",
          "type": "uint256"
        }
      ],
      "name": "transferFrom",
      "outputs": [],
      "stateMutability": "nonpayable",
      "type": "function"
    }
  ],
  "bytecode": "0x6080604052604051806102e001604052806102b68152602001620042536102b69139600890805190602001906200003892919062000643565b506040518060c001604052806040518060400160405280600781526020017f436f6d70726f750000000000000000000000000000000000000000000000000081525081526020016040518060400160405280600681526020017f56656e646575000000000000000000000000000000000000000000000000000081525081526020016040518060400160405280600681526020017f486f6c646f75000000000000000000000000000000000000000000000000000081525081526020016040518060400160405280600681526020017f4d696e746f75000000000000000000000000000000000000000000000000000081525081526020016040518060400160405280600a81526020017f446575416c6c496e456d0000000000000000000000000000000000000000000081525081526020016040518060400160405280600c81526020017f456e74726f7546726565456d00000000000000000000000000000000000000008152508152506009906006620001b6929190620006d4565b506040518060c001604052806040518060400160405280600481526020017f417869650000000000000000000000000000000000000000000000000000000081525081526020016040518060400160405280600a81526020017f426f6d6263727970746f0000000000000000000000000000000000000000000081525081526020016040518060400160405280600381526020017f507675000000000000000000000000000000000000000000000000000000000081525081526020016040518060400160405280600781526020017f426974636f696e0000000000000000000000000000000000000000000000000081525081526020016040518060400160405280600881526020017f426f72656441706500000000000000000000000000000000000000000000000081525081526020016040518060400160405280600b81526020017f43727970746f6d696e6573000000000000000000000000000000000000000000815250815250600a90600662000334929190620006d4565b506040518060a001604052806040518060400160405280600b81526020017f45466f695363616d61646f00000000000000000000000000000000000000000081525081526020016040518060400160405280600b81526020017f455265696e76657374697500000000000000000000000000000000000000000081525081526020016040518060400160405280600781526020017f4546657a3130780000000000000000000000000000000000000000000000000081525081526020016040518060400160405280600a81526020017f454669636f755269636f0000000000000000000000000000000000000000000081525081526020016040518060400160405280600681526020017f4546616c69750000000000000000000000000000000000000000000000000000815250815250600b906005620004779291906200073b565b503480156200048557600080fd5b506040518060400160405280600981526020017f546f5468654d6f6f6e00000000000000000000000000000000000000000000008152506040518060400160405280600481526020017f4d4f4f4e0000000000000000000000000000000000000000000000000000000081525081600090805190602001906200050a92919062000643565b5080600190805190602001906200052392919062000643565b505050620005716040518060400160405280601c81526020017f4d657520636f6e747261746f206465204e46542120546368752d6875000000008152506200057760201b6200113d1760201c565b6200095c565b62000617816040516024016200058e919062000870565b6040516020818303038152906040527f41304fac000000000000000000000000000000000000000000000000000000007bffffffffffffffffffffffffffffffffffffffffffffffffffffffff19166020820180517bffffffffffffffffffffffffffffffffffffffffffffffffffffffff83818316178352505050506200061a60201b60201c565b50565b60008151905060006a636f6e736f6c652e6c6f679050602083016000808483855afa5050505050565b8280546200065190620008e6565b90600052602060002090601f016020900481019282620006755760008555620006c1565b82601f106200069057805160ff1916838001178555620006c1565b82800160010185558215620006c1579182015b82811115620006c0578251825591602001919060010190620006a3565b5b509050620006d09190620007a2565b5090565b82805482825590600052602060002090810192821562000728579160200282015b82811115620007275782518290805190602001906200071692919062000643565b5091602001919060010190620006f5565b5b509050620007379190620007c1565b5090565b8280548282559060005260206000209081019282156200078f579160200282015b828111156200078e5782518290805190602001906200077d92919062000643565b50916020019190600101906200075c565b5b5090506200079e9190620007c1565b5090565b5b80821115620007bd576000816000905550600101620007a3565b5090565b5b80821115620007e55760008181620007db9190620007e9565b50600101620007c2565b5090565b508054620007f790620008e6565b6000825580601f106200080b57506200082c565b601f0160209004906000526020600020908101906200082b9190620007a2565b5b50565b60006200083c8262000894565b6200084881856200089f565b93506200085a818560208601620008b0565b62000865816200094b565b840191505092915050565b600060208201905081810360008301526200088c81846200082f565b905092915050565b600081519050919050565b600082825260208201905092915050565b60005b83811015620008d0578082015181840152602081019050620008b3565b83811115620008e0576000848401525b50505050565b60006002820490506001821680620008ff57607f821691505b602082108114156200091657620009156200091c565b5b50919050565b7f4e487b7100000000000000000000000000000000000000000000000000000000600052602260045260246000fd5b6000601f19601f8301169050919050565b6138e7806200096c6000396000f3fe608060405234801561001057600080fd5b50600436106101215760003560e01c806370a08231116100ad578063b88d4fde11610071578063b88d4fde1461032e578063c575757a1461034a578063c87b56dd1461037a578063de9d132f146103aa578063e985e9c5146103b457610121565b806370a0823114610276578063902d55a5146102a657806395d89b41146102c4578063a22cb465146102e2578063b187301f146102fe57610121565b8063095ea7b3116100f4578063095ea7b3146101c257806323b872dd146101de5780632de38d68146101fa57806342842e0e1461022a5780636352211e1461024657610121565b806301ffc9a714610126578063060475901461015657806306fdde0314610174578063081812fc14610192575b600080fd5b610140600480360381019061013b91906125c8565b6103e4565b60405161014d9190612c69565b60405180910390f35b61015e6104c6565b60405161016b9190612eb4565b60405180910390f35b61017c61051f565b6040516101899190612c84565b60405180910390f35b6101ac60048036038101906101a7919061261a565b6105b1565b6040516101b99190612bd9565b60405180910390f35b6101dc60048036038101906101d7919061258c565b6105f7565b005b6101f860048036038101906101f39190612486565b61070f565b005b610214600480360381019061020f919061261a565b61076f565b6040516102219190612c84565b60405180910390f35b610244600480360381019061023f9190612486565b61088d565b005b610260600480360381019061025b919061261a565b6108ad565b60405161026d9190612bd9565b60405180910390f35b610290600480360381019061028b9190612421565b61095f565b60405161029d9190612eb4565b60405180910390f35b6102ae610a17565b6040516102bb9190612eb4565b60405180910390f35b6102cc610a1c565b6040516102d99190612c84565b60405180910390f35b6102fc60048036038101906102f79190612550565b610aae565b005b6103186004803603810190610313919061261a565b610ac4565b6040516103259190612c84565b60405180910390f35b610348600480360381019061034391906124d5565b610be2565b005b610364600480360381019061035f919061261a565b610c44565b6040516103719190612c84565b60405180910390f35b610394600480360381019061038f919061261a565b610d62565b6040516103a19190612c84565b60405180910390f35b6103b2610e75565b005b6103ce60048036038101906103c9919061244a565b6110a9565b6040516103db9190612c69565b60405180910390f35b60007f80ac58cd000000000000000000000000000000000000000000000000000000007bffffffffffffffffffffffffffffffffffffffffffffffffffffffff1916827bffffffffffffffffffffffffffffffffffffffffffffffffffffffff191614806104af57507f5b5e139f000000000000000000000000000000000000000000000000000000007bffffffffffffffffffffffffffffffffffffffffffffffffffffffff1916827bffffffffffffffffffffffffffffffffffffffffffffffffffffffff1916145b806104bf57506104be826111d6565b5b9050919050565b60006105106040518060400160405280600c81526020017f4e4654535353535353535353000000000000000000000000000000000000000081525061050b6007611240565b61124e565b61051a6007611240565b905090565b60606000805461052e90613148565b80601f016020809104026020016040519081016040528092919081815260200182805461055a90613148565b80156105a75780601f1061057c576101008083540402835291602001916105a7565b820191906000526020600020905b81548152906001019060200180831161058a57829003601f168201915b5050505050905090565b60006105bc826112ea565b6004600083815260200190815260200160002060009054906101000a900473ffffffffffffffffffffffffffffffffffffffff169050919050565b6000610602826108ad565b90508073ffffffffffffffffffffffffffffffffffffffff168373ffffffffffffffffffffffffffffffffffffffff161415610673576040517f08c379a000000000000000000000000000000000000000000000000000000000815260040161066a90612e54565b60405180910390fd5b8073ffffffffffffffffffffffffffffffffffffffff16610692611335565b73ffffffffffffffffffffffffffffffffffffffff1614806106c157506106c0816106bb611335565b6110a9565b5b610700576040517f08c379a00000000000000000000000000000000000000000000000000000000081526004016106f790612df4565b60405180910390fd5b61070a838361133d565b505050565b61072061071a611335565b826113f6565b61075f576040517f08c379a000000000000000000000000000000000000000000000000000000000815260040161075690612e94565b60405180910390fd5b61076a83838361148b565b505050565b606060006107a361077f846116f2565b60405160200161078f9190612b2e565b60405160208183030381529060405261189f565b9050600980549050816107b691906131f4565b9050600981815481106107f2577f4e487b7100000000000000000000000000000000000000000000000000000000600052603260045260246000fd5b90600052602060002001805461080790613148565b80601f016020809104026020016040519081016040528092919081815260200182805461083390613148565b80156108805780601f1061085557610100808354040283529160200191610880565b820191906000526020600020905b81548152906001019060200180831161086357829003601f168201915b5050505050915050919050565b6108a883838360405180602001604052806000815250610be2565b505050565b6000806002600084815260200190815260200160002060009054906101000a900473ffffffffffffffffffffffffffffffffffffffff169050600073ffffffffffffffffffffffffffffffffffffffff168173ffffffffffffffffffffffffffffffffffffffff161415610956576040517f08c379a000000000000000000000000000000000000000000000000000000000815260040161094d90612e34565b60405180910390fd5b80915050919050565b60008073ffffffffffffffffffffffffffffffffffffffff168273ffffffffffffffffffffffffffffffffffffffff1614156109d0576040517f08c379a00000000000000000000000000000000000000000000000000000000081526004016109c790612db4565b60405180910390fd5b600360008373ffffffffffffffffffffffffffffffffffffffff1673ffffffffffffffffffffffffffffffffffffffff168152602001908152602001600020549050919050565b603281565b606060018054610a2b90613148565b80601f0160208091040260200160405190810160405280929190818152602001828054610a5790613148565b8015610aa45780601f10610a7957610100808354040283529160200191610aa4565b820191906000526020600020905b815481529060010190602001808311610a8757829003601f168201915b5050505050905090565b610ac0610ab9611335565b83836118d2565b5050565b60606000610af8610ad4846116f2565b604051602001610ae49190612b0c565b60405160208183030381529060405261189f565b9050600a8054905081610b0b91906131f4565b9050600a8181548110610b47577f4e487b7100000000000000000000000000000000000000000000000000000000600052603260045260246000fd5b906000526020600020018054610b5c90613148565b80601f0160208091040260200160405190810160405280929190818152602001828054610b8890613148565b8015610bd55780601f10610baa57610100808354040283529160200191610bd5565b820191906000526020600020905b815481529060010190602001808311610bb857829003601f168201915b5050505050915050919050565b610bf3610bed611335565b836113f6565b610c32576040517f08c379a0000000000000000000000000000000000000000000000000000000008152600401610c2990612e94565b60405180910390fd5b610c3e84848484611a3f565b50505050565b60606000610c78610c54846116f2565b604051602001610c649190612b50565b60405160208183030381529060405261189f565b9050600b8054905081610c8b91906131f4565b9050600b8181548110610cc7577f4e487b7100000000000000000000000000000000000000000000000000000000600052603260045260246000fd5b906000526020600020018054610cdc90613148565b80601f0160208091040260200160405190810160405280929190818152602001828054610d0890613148565b8015610d555780601f10610d2a57610100808354040283529160200191610d55565b820191906000526020600020905b815481529060010190602001808311610d3857829003601f168201915b5050505050915050919050565b6060610d6d826112ea565b6000600660008481526020019081526020016000208054610d8d90613148565b80601f0160208091040260200160405190810160405280929190818152602001828054610db990613148565b8015610e065780601f10610ddb57610100808354040283529160200191610e06565b820191906000526020600020905b815481529060010190602001808311610de957829003601f168201915b505050505090506000610e17611a9b565b9050600081511415610e2d578192505050610e70565b600082511115610e62578082604051602001610e4a929190612a88565b60405160208183030381529060405292505050610e70565b610e6b84611ab2565b925050505b919050565b6032610e816007611240565b1115610ec2576040517f08c379a0000000000000000000000000000000000000000000000000000000008152600401610eb990612e74565b60405180910390fd5b6000610ece6007611240565b90506000610edb8261076f565b90506000610ee883610ac4565b90506000610ef584610c44565b90506000838383604051602001610f0e93929190612aac565b60405160208183030381529060405290506000600882604051602001610f35929190612add565b60405160208183030381529060405290506000610f7a83610f5584611b1a565b604051602001610f66929190612b72565b604051602081830303815290604052611b1a565b9050600081604051602001610f8f9190612bb7565b6040516020818303038152906040529050610fde6040518060400160405280601581526020017f0a2d2d2d2d2d2d2d2d2d2d2d2d2d2d2d2d2d2d2d2d000000000000000000000081525061113d565b610fe78161113d565b6110256040518060400160405280601581526020017f2d2d2d2d2d2d2d2d2d2d2d2d2d2d2d2d2d2d2d2d0a000000000000000000000081525061113d565b61102f3389611cd8565b6110398882611cf6565b6110436007611d6a565b61106660405180606001604052806024815260200161384e602491398933611d80565b7febb98688741ffa4c7589bf325de30cf7becb63de567842e1ccdb6cb949fdc82c3389604051611097929190612c40565b60405180910390a15050505050505050565b6000600560008473ffffffffffffffffffffffffffffffffffffffff1673ffffffffffffffffffffffffffffffffffffffff16815260200190815260200160002060008373ffffffffffffffffffffffffffffffffffffffff1673ffffffffffffffffffffffffffffffffffffffff16815260200190815260200160002060009054906101000a900460ff16905092915050565b6111d3816040516024016111519190612c84565b6040516020818303038152906040527f41304fac000000000000000000000000000000000000000000000000000000007bffffffffffffffffffffffffffffffffffffffffffffffffffffffff19166020820180517bffffffffffffffffffffffffffffffffffffffffffffffffffffffff8381831617835250505050611e1f565b50565b60007f01ffc9a7000000000000000000000000000000000000000000000000000000007bffffffffffffffffffffffffffffffffffffffffffffffffffffffff1916827bffffffffffffffffffffffffffffffffffffffffffffffffffffffff1916149050919050565b600081600001549050919050565b6112e68282604051602401611264929190612ca6565b6040516020818303038152906040527f9710a9d0000000000000000000000000000000000000000000000000000000007bffffffffffffffffffffffffffffffffffffffffffffffffffffffff19166020820180517bffffffffffffffffffffffffffffffffffffffffffffffffffffffff8381831617835250505050611e1f565b5050565b6112f381611e48565b611332576040517f08c379a000000000000000000000000000000000000000000000000000000000815260040161132990612e34565b60405180910390fd5b50565b600033905090565b816004600083815260200190815260200160002060006101000a81548173ffffffffffffffffffffffffffffffffffffffff021916908373ffffffffffffffffffffffffffffffffffffffff160217905550808273ffffffffffffffffffffffffffffffffffffffff166113b0836108ad565b73ffffffffffffffffffffffffffffffffffffffff167f8c5be1e5ebec7d5bd14f71427d1e84f3dd0314c0f7b2291e5b200ac8c7c3b92560405160405180910390a45050565b600080611402836108ad565b90508073ffffffffffffffffffffffffffffffffffffffff168473ffffffffffffffffffffffffffffffffffffffff161480611444575061144381856110a9565b5b8061148257508373ffffffffffffffffffffffffffffffffffffffff1661146a846105b1565b73ffffffffffffffffffffffffffffffffffffffff16145b91505092915050565b8273ffffffffffffffffffffffffffffffffffffffff166114ab826108ad565b73ffffffffffffffffffffffffffffffffffffffff1614611501576040517f08c379a00000000000000000000000000000000000000000000000000000000081526004016114f890612d34565b60405180910390fd5b600073ffffffffffffffffffffffffffffffffffffffff168273ffffffffffffffffffffffffffffffffffffffff161415611571576040517f08c379a000000000000000000000000000000000000000000000000000000000815260040161156890612d74565b60405180910390fd5b61157c838383611eb4565b61158760008261133d565b6001600360008573ffffffffffffffffffffffffffffffffffffffff1673ffffffffffffffffffffffffffffffffffffffff16815260200190815260200160002060008282546115d7919061305e565b925050819055506001600360008473ffffffffffffffffffffffffffffffffffffffff1673ffffffffffffffffffffffffffffffffffffffff168152602001908152602001600020600082825461162e9190612f7d565b92505081905550816002600083815260200190815260200160002060006101000a81548173ffffffffffffffffffffffffffffffffffffffff021916908373ffffffffffffffffffffffffffffffffffffffff160217905550808273ffffffffffffffffffffffffffffffffffffffff168473ffffffffffffffffffffffffffffffffffffffff167fddf252ad1be2c89b69c2b068fc378daa952ba7f163c4a11628f55a4df523b3ef60405160405180910390a46116ed838383611eb9565b505050565b6060600082141561173a576040518060400160405280600181526020017f3000000000000000000000000000000000000000000000000000000000000000815250905061189a565b600082905060005b6000821461176c578080611755906131ab565b915050600a826117659190612fd3565b9150611742565b60008167ffffffffffffffff8111156117ae577f4e487b7100000000000000000000000000000000000000000000000000000000600052604160045260246000fd5b6040519080825280601f01601f1916602001820160405280156117e05781602001600182028036833780820191505090505b5090505b60008514611893576001826117f9919061305e565b9150600a8561180891906131f4565b60306118149190612f7d565b60f81b818381518110611850577f4e487b7100000000000000000000000000000000000000000000000000000000600052603260045260246000fd5b60200101907effffffffffffffffffffffffffffffffffffffffffffffffffffffffffffff1916908160001a905350600a8561188c9190612fd3565b94506117e4565b8093505050505b919050565b6000816040516020016118b29190612a71565b6040516020818303038152906040528051906020012060001c9050919050565b8173ffffffffffffffffffffffffffffffffffffffff168373ffffffffffffffffffffffffffffffffffffffff161415611941576040517f08c379a000000000000000000000000000000000000000000000000000000000815260040161193890612d94565b60405180910390fd5b80600560008573ffffffffffffffffffffffffffffffffffffffff1673ffffffffffffffffffffffffffffffffffffffff16815260200190815260200160002060008473ffffffffffffffffffffffffffffffffffffffff1673ffffffffffffffffffffffffffffffffffffffff16815260200190815260200160002060006101000a81548160ff0219169083151502179055508173ffffffffffffffffffffffffffffffffffffffff168373ffffffffffffffffffffffffffffffffffffffff167f17307eab39ab6107e8899845ad3d59bd9653f200f220920489ca2b5937696c3183604051611a329190612c69565b60405180910390a3505050565b611a4a84848461148b565b611a5684848484611ebe565b611a95576040517f08c379a0000000000000000000000000000000000000000000000000000000008152600401611a8c90612d14565b60405180910390fd5b50505050565b606060405180602001604052806000815250905090565b6060611abd826112ea565b6000611ac7611a9b565b90506000815111611ae75760405180602001604052806000815250611b12565b80611af1846116f2565b604051602001611b02929190612a88565b6040516020818303038152906040525b915050919050565b60606000825190506000811415611b435760405180602001604052806000815250915050611cd3565b60006003600283611b549190612f7d565b611b5e9190612fd3565b6004611b6a9190613004565b90506000602082611b7b9190612f7d565b67ffffffffffffffff811115611bba577f4e487b7100000000000000000000000000000000000000000000000000000000600052604160045260246000fd5b6040519080825280601f01601f191660200182016040528015611bec5781602001600182028036833780820191505090505b5090506000604051806060016040528060408152602001613872604091399050600181016020830160005b86811015611c905760038101905062ffffff818a015116603f8160121c168401518060081b905060ff603f83600c1c1686015116810190508060081b905060ff603f8360061c1686015116810190508060081b905060ff603f831686015116810190508060e01b90508084526004840193505050611c17565b506003860660018114611caa5760028114611cba57611cc5565b613d3d60f01b6002830352611cc5565b603d60f81b60018303525b508484525050819450505050505b919050565b611cf2828260405180602001604052806000815250612055565b5050565b611cff82611e48565b611d3e576040517f08c379a0000000000000000000000000000000000000000000000000000000008152600401611d3590612dd4565b60405180910390fd5b80600660008481526020019081526020016000209080519060200190611d659291906122ad565b505050565b6001816000016000828254019250508190555050565b611e1a838383604051602401611d9893929190612cd6565b6040516020818303038152906040527fe3849f79000000000000000000000000000000000000000000000000000000007bffffffffffffffffffffffffffffffffffffffffffffffffffffffff19166020820180517bffffffffffffffffffffffffffffffffffffffffffffffffffffffff8381831617835250505050611e1f565b505050565b60008151905060006a636f6e736f6c652e6c6f679050602083016000808483855afa5050505050565b60008073ffffffffffffffffffffffffffffffffffffffff166002600084815260200190815260200160002060009054906101000a900473ffffffffffffffffffffffffffffffffffffffff1673ffffffffffffffffffffffffffffffffffffffff1614159050919050565b505050565b505050565b6000611edf8473ffffffffffffffffffffffffffffffffffffffff166120b0565b15612048578373ffffffffffffffffffffffffffffffffffffffff1663150b7a02611f08611335565b8786866040518563ffffffff1660e01b8152600401611f2a9493929190612bf4565b602060405180830381600087803b158015611f4457600080fd5b505af1925050508015611f7557506040513d601f19601f82011682018060405250810190611f7291906125f1565b60015b611ff8573d8060008114611fa5576040519150601f19603f3d011682016040523d82523d6000602084013e611faa565b606091505b50600081511415611ff0576040517f08c379a0000000000000000000000000000000000000000000000000000000008152600401611fe790612d14565b60405180910390fd5b805181602001fd5b63150b7a0260e01b7bffffffffffffffffffffffffffffffffffffffffffffffffffffffff1916817bffffffffffffffffffffffffffffffffffffffffffffffffffffffff19161491505061204d565b600190505b949350505050565b61205f83836120d3565b61206c6000848484611ebe565b6120ab576040517f08c379a00000000000000000000000000000000000000000000000000000000081526004016120a290612d14565b60405180910390fd5b505050565b6000808273ffffffffffffffffffffffffffffffffffffffff163b119050919050565b600073ffffffffffffffffffffffffffffffffffffffff168273ffffffffffffffffffffffffffffffffffffffff161415612143576040517f08c379a000000000000000000000000000000000000000000000000000000000815260040161213a90612e14565b60405180910390fd5b61214c81611e48565b1561218c576040517f08c379a000000000000000000000000000000000000000000000000000000000815260040161218390612d54565b60405180910390fd5b61219860008383611eb4565b6001600360008473ffffffffffffffffffffffffffffffffffffffff1673ffffffffffffffffffffffffffffffffffffffff16815260200190815260200160002060008282546121e89190612f7d565b92505081905550816002600083815260200190815260200160002060006101000a81548173ffffffffffffffffffffffffffffffffffffffff021916908373ffffffffffffffffffffffffffffffffffffffff160217905550808273ffffffffffffffffffffffffffffffffffffffff16600073ffffffffffffffffffffffffffffffffffffffff167fddf252ad1be2c89b69c2b068fc378daa952ba7f163c4a11628f55a4df523b3ef60405160405180910390a46122a960008383611eb9565b5050565b8280546122b990613148565b90600052602060002090601f0160209004810192826122db5760008555612322565b82601f106122f457805160ff1916838001178555612322565b82800160010185558215612322579182015b82811115612321578251825591602001919060010190612306565b5b50905061232f9190612333565b5090565b5b8082111561234c576000816000905550600101612334565b5090565b600061236361235e84612ef4565b612ecf565b90508281526020810184848401111561237b57600080fd5b612386848285613106565b509392505050565b60008135905061239d816137f1565b92915050565b6000813590506123b281613808565b92915050565b6000813590506123c78161381f565b92915050565b6000815190506123dc8161381f565b92915050565b600082601f8301126123f357600080fd5b8135612403848260208601612350565b91505092915050565b60008135905061241b81613836565b92915050565b60006020828403121561243357600080fd5b60006124418482850161238e565b91505092915050565b6000806040838503121561245d57600080fd5b600061246b8582860161238e565b925050602061247c8582860161238e565b9150509250929050565b60008060006060848603121561249b57600080fd5b60006124a98682870161238e565b93505060206124ba8682870161238e565b92505060406124cb8682870161240c565b9150509250925092565b600080600080608085870312156124eb57600080fd5b60006124f98782880161238e565b945050602061250a8782880161238e565b935050604061251b8782880161240c565b925050606085013567ffffffffffffffff81111561253857600080fd5b612544878288016123e2565b91505092959194509250565b6000806040838503121561256357600080fd5b60006125718582860161238e565b9250506020612582858286016123a3565b9150509250929050565b6000806040838503121561259f57600080fd5b60006125ad8582860161238e565b92505060206125be8582860161240c565b9150509250929050565b6000602082840312156125da57600080fd5b60006125e8848285016123b8565b91505092915050565b60006020828403121561260357600080fd5b6000612611848285016123cd565b91505092915050565b60006020828403121561262c57600080fd5b600061263a8482850161240c565b91505092915050565b61264c81613092565b82525050565b61265b816130a4565b82525050565b600061266c82612f3a565b6126768185612f50565b9350612686818560208601613115565b61268f816132e1565b840191505092915050565b60006126a582612f45565b6126af8185612f61565b93506126bf818560208601613115565b6126c8816132e1565b840191505092915050565b60006126de82612f45565b6126e88185612f72565b93506126f8818560208601613115565b80840191505092915050565b6000815461271181613148565b61271b8186612f72565b9450600182166000811461273657600181146127475761277a565b60ff1983168652818601935061277a565b61275085612f25565b60005b8381101561277257815481890152600182019150602081019050612753565b838801955050505b50505092915050565b6000612790603283612f61565b915061279b826132f2565b604082019050919050565b60006127b3602583612f61565b91506127be82613341565b604082019050919050565b60006127d6601c83612f61565b91506127e182613390565b602082019050919050565b60006127f9602483612f61565b9150612804826133b9565b604082019050919050565b600061281c601983612f61565b915061282782613408565b602082019050919050565b600061283f600f83612f72565b915061284a82613431565b600f82019050919050565b6000612862600d83612f72565b915061286d8261345a565b600d82019050919050565b6000612885602983612f61565b915061289082613483565b604082019050919050565b60006128a8601083612f72565b91506128b3826134d2565b601082019050919050565b60006128cb602e83612f61565b91506128d6826134fb565b604082019050919050565b60006128ee600283612f72565b91506128f98261354a565b600282019050919050565b6000612911603e83612f61565b915061291c82613573565b604082019050919050565b6000612934602083612f61565b915061293f826135c2565b602082019050919050565b6000612957601083612f72565b9150612962826135eb565b601082019050919050565b600061297a600a83612f72565b915061298582613614565b600a82019050919050565b600061299d601883612f61565b91506129a88261363d565b602082019050919050565b60006129c0602183612f61565b91506129cb82613666565b604082019050919050565b60006129e3601d83612f72565b91506129ee826136b5565b601d82019050919050565b6000612a06601383612f61565b9150612a11826136de565b602082019050919050565b6000612a29602e83612f61565b9150612a3482613707565b604082019050919050565b6000612a4c606d83612f72565b9150612a5782613756565b606d82019050919050565b612a6b816130fc565b82525050565b6000612a7d82846126d3565b915081905092915050565b6000612a9482856126d3565b9150612aa082846126d3565b91508190509392505050565b6000612ab882866126d3565b9150612ac482856126d3565b9150612ad082846126d3565b9150819050949350505050565b6000612ae98285612704565b9150612af582846126d3565b9150612b0082612855565b91508190509392505050565b6000612b1782612832565b9150612b2382846126d3565b915081905092915050565b6000612b398261289b565b9150612b4582846126d3565b915081905092915050565b6000612b5b8261294a565b9150612b6782846126d3565b915081905092915050565b6000612b7d8261296d565b9150612b8982856126d3565b9150612b9482612a3f565b9150612ba082846126d3565b9150612bab826128e1565b91508190509392505050565b6000612bc2826129d6565b9150612bce82846126d3565b915081905092915050565b6000602082019050612bee6000830184612643565b92915050565b6000608082019050612c096000830187612643565b612c166020830186612643565b612c236040830185612a62565b8181036060830152612c358184612661565b905095945050505050565b6000604082019050612c556000830185612643565b612c626020830184612a62565b9392505050565b6000602082019050612c7e6000830184612652565b92915050565b60006020820190508181036000830152612c9e818461269a565b905092915050565b60006040820190508181036000830152612cc0818561269a565b9050612ccf6020830184612a62565b9392505050565b60006060820190508181036000830152612cf0818661269a565b9050612cff6020830185612a62565b612d0c6040830184612643565b949350505050565b60006020820190508181036000830152612d2d81612783565b9050919050565b60006020820190508181036000830152612d4d816127a6565b9050919050565b60006020820190508181036000830152612d6d816127c9565b9050919050565b60006020820190508181036000830152612d8d816127ec565b9050919050565b60006020820190508181036000830152612dad8161280f565b9050919050565b60006020820190508181036000830152612dcd81612878565b9050919050565b60006020820190508181036000830152612ded816128be565b9050919050565b60006020820190508181036000830152612e0d81612904565b9050919050565b60006020820190508181036000830152612e2d81612927565b9050919050565b60006020820190508181036000830152612e4d81612990565b9050919050565b60006020820190508181036000830152612e6d816129b3565b9050919050565b60006020820190508181036000830152612e8d816129f9565b9050919050565b60006020820190508181036000830152612ead81612a1c565b9050919050565b6000602082019050612ec96000830184612a62565b92915050565b6000612ed9612eea565b9050612ee5828261317a565b919050565b6000604051905090565b600067ffffffffffffffff821115612f0f57612f0e6132b2565b5b612f18826132e1565b9050602081019050919050565b60008190508160005260206000209050919050565b600081519050919050565b600081519050919050565b600082825260208201905092915050565b600082825260208201905092915050565b600081905092915050565b6000612f88826130fc565b9150612f93836130fc565b9250827fffffffffffffffffffffffffffffffffffffffffffffffffffffffffffffffff03821115612fc857612fc7613225565b5b828201905092915050565b6000612fde826130fc565b9150612fe9836130fc565b925082612ff957612ff8613254565b5b828204905092915050565b600061300f826130fc565b915061301a836130fc565b9250817fffffffffffffffffffffffffffffffffffffffffffffffffffffffffffffffff048311821515161561305357613052613225565b5b828202905092915050565b6000613069826130fc565b9150613074836130fc565b92508282101561308757613086613225565b5b828203905092915050565b600061309d826130dc565b9050919050565b60008115159050919050565b60007fffffffff0000000000000000000000000000000000000000000000000000000082169050919050565b600073ffffffffffffffffffffffffffffffffffffffff82169050919050565b6000819050919050565b82818337600083830152505050565b60005b83811015613133578082015181840152602081019050613118565b83811115613142576000848401525b50505050565b6000600282049050600182168061316057607f821691505b6020821081141561317457613173613283565b5b50919050565b613183826132e1565b810181811067ffffffffffffffff821117156131a2576131a16132b2565b5b80604052505050565b60006131b6826130fc565b91507fffffffffffffffffffffffffffffffffffffffffffffffffffffffffffffffff8214156131e9576131e8613225565b5b600182019050919050565b60006131ff826130fc565b915061320a836130fc565b92508261321a57613219613254565b5b828206905092915050565b7f4e487b7100000000000000000000000000000000000000000000000000000000600052601160045260246000fd5b7f4e487b7100000000000000000000000000000000000000000000000000000000600052601260045260246000fd5b7f4e487b7100000000000000000000000000000000000000000000000000000000600052602260045260246000fd5b7f4e487b7100000000000000000000000000000000000000000000000000000000600052604160045260246000fd5b6000601f19601f8301169050919050565b7f4552433732313a207472616e7366657220746f206e6f6e20455243373231526560008201527f63656976657220696d706c656d656e7465720000000000000000000000000000602082015250565b7f4552433732313a207472616e736665722066726f6d20696e636f72726563742060008201527f6f776e6572000000000000000000000000000000000000000000000000000000602082015250565b7f4552433732313a20746f6b656e20616c7265616479206d696e74656400000000600082015250565b7f4552433732313a207472616e7366657220746f20746865207a65726f2061646460008201527f7265737300000000000000000000000000000000000000000000000000000000602082015250565b7f4552433732313a20617070726f766520746f2063616c6c657200000000000000600082015250565b7f534547554e44415f50414c415652410000000000000000000000000000000000600082015250565b7f3c2f746578743e3c2f7376673e00000000000000000000000000000000000000600082015250565b7f4552433732313a2061646472657373207a65726f206973206e6f74206120766160008201527f6c6964206f776e65720000000000000000000000000000000000000000000000602082015250565b7f5052494d454952415f50414c4156524100000000000000000000000000000000600082015250565b7f45524337323155524953746f726167653a2055524920736574206f66206e6f6e60008201527f6578697374656e7420746f6b656e000000000000000000000000000000000000602082015250565b7f227d000000000000000000000000000000000000000000000000000000000000600082015250565b7f4552433732313a20617070726f76652063616c6c6572206973206e6f7420746f60008201527f6b656e206f776e6572206e6f7220617070726f76656420666f7220616c6c0000602082015250565b7f4552433732313a206d696e7420746f20746865207a65726f2061646472657373600082015250565b7f54455243454952415f50414c4156524100000000000000000000000000000000600082015250565b7f7b226e616d65223a202200000000000000000000000000000000000000000000600082015250565b7f4552433732313a20696e76616c696420746f6b656e2049440000000000000000600082015250565b7f4552433732313a20617070726f76616c20746f2063757272656e74206f776e6560008201527f7200000000000000000000000000000000000000000000000000000000000000602082015250565b7f646174613a6170706c69636174696f6e2f6a736f6e3b6261736536342c000000600082015250565b7f496e73756666696369656e7420746f6b656e7300000000000000000000000000600082015250565b7f4552433732313a2063616c6c6572206973206e6f7420746f6b656e206f776e6560008201527f72206e6f7220617070726f766564000000000000000000000000000000000000602082015250565b7f222c20226465736372697074696f6e223a2022556d6120636f6c6563616f206160008201527f636c616d61646120652066616d6f7361206465204e465473206d61726176696c60208201527f686f736f732e222c2022696d616765223a2022646174613a696d6167652f737660408201527f672b786d6c3b6261736536342c00000000000000000000000000000000000000606082015250565b6137fa81613092565b811461380557600080fd5b50565b613811816130a4565b811461381c57600080fd5b50565b613828816130b0565b811461383357600080fd5b50565b61383f816130fc565b811461384a57600080fd5b5056fe556d204e465420636f6d20494420257320666f692063756e6861646f20706172612025734142434445464748494a4b4c4d4e4f505152535455565758595a6162636465666768696a6b6c6d6e6f707172737475767778797a303132333435363738392b2fa2646970667358221220a2935db093da1d19384290463d5ff21c0cef5b3677f18a41066520cf4ef9008564736f6c634300080100333c7376672020786d6c6e733d27687474703a2f2f7777772e77332e6f72672f323030302f7376672720207072657365727665417370656374526174696f3d27784d696e594d696e206d65657427202076696577426f783d273020302033353020333530273e20203c646566733e202020203c6c696e6561724772616469656e742069643d274772616469656e7431273e2020202020203c73746f7020636c6173733d2773746f703127206f66667365743d273025272f3e2020202020203c73746f7020636c6173733d2773746f703227206f66667365743d27353025272f3e2020202020203c73746f7020636c6173733d2773746f703327206f66667365743d2731303025272f3e202020203c2f6c696e6561724772616469656e743e20203c2f646566733e20203c7374796c653e202020202e62617365207b20202020202066696c6c3a20626c75653b202020202020666f6e742d66616d696c793a2073657269663b202020202020666f6e742d73697a653a20323070783b202020202020636f6c6f723a20234646463b202020207d202020202e73746f7031207b2073746f702d636f6c6f723a20677265656e3b207d202020202e73746f7032207b2073746f702d636f6c6f723a2077686974653b2073746f702d6f7061636974793a20303b207d202020202e73746f7033207b2073746f702d636f6c6f723a2079656c6c6f773b207d2020202020203c2f7374796c653e20203c726563742077696474683d273130302527206865696768743d2731303025272066696c6c3d2775726c28234772616469656e74312927202f3e20203c7465787420202020783d273530252720202020793d273530252720202020636c6173733d27626173652720202020646f6d696e616e742d626173656c696e653d276d6964646c652720202020746578742d616e63686f723d276d6964646c652720203e",
  "linkReferences": {},
  "deployedLinkReferences": {}
}